{
  "contractName": "helloworld",
  "abi": [
    {
      "inputs": [
        {
          "internalType": "bytes32",
          "name": "_name",
          "type": "bytes32"
        }
      ],
      "payable": false,
      "stateMutability": "nonpayable",
      "type": "constructor"
    },
    {
      "constant": true,
      "inputs": [],
      "name": "getName",
      "outputs": [
        {
          "internalType": "bytes32",
          "name": "",
          "type": "bytes32"
        }
      ],
      "payable": false,
      "stateMutability": "view",
      "type": "function"
    }
  ],
  "bytecode": "0x608060405234801561001057600080fd5b506040516101223803806101228339818101604052602081101561003357600080fd5b810190808051906020019092919050505033600160006101000a81548173ffffffffffffffffffffffffffffffffffffffff021916908373ffffffffffffffffffffffffffffffffffffffff160217905550806000819055505060878061009b6000396000f3fe6080604052348015600f57600080fd5b506004361060285760003560e01c806317d7de7c14602d575b600080fd5b60336049565b6040518082815260200191505060405180910390f35b6000805490509056fea265627a7a72315820543d2c42638fc9904f93077e7f5ca965e2c5caf87b46cc355cf9e65446af2d3164736f6c63430005100032",
  "source": "// SPDX-License-Identifier: MIT\r\npragma solidity >=0.4.25 <0.7.0;\r\n\r\ncontract helloworld {\r\n   bytes32 private name;\r\n    address owner;\r\n\r\n\r\n  constructor(bytes32 _name) public {\r\n        owner = msg.sender;\r\n        name = _name;\r\n    }\r\n\r\n    function getName() public  view returns(bytes32)\r\n    {\r\n            return name;\r\n    }\r\n\r\n}",
  "sourcePath": "C:/security_projects/smartContrat/contracts/hello.sol",
  "compiler": {
    "name": "solc",
    "version": "0.5.16+commit.9c3226ce.Emscripten.clang"
  },
  "schemaVersion": "3.2.2",
  "updatedAt": "2020-07-19T03:26:38.483Z",
  "devdoc": {
    "methods": {}
  },
  "userdoc": {
    "methods": {}
  }
}